:020000040800F2
:1000000000060120010200080302000803020008A4
:1000100003020008030200080302000803020008AC
:10002000030200080302000803020008CD310008A3
:10003000030200080302000803020008030200088C
:10004000030200080302000803020008030200087C
:100050000302000803020008753400089D340008FC
:10006000C5340008ED340008153500080302000807
:10007000030200080302000803020008030200084C
:10008000030200080302000803020008030200083C
:100090000302000803020008030200083D350008BF
:1000A000030200080302000803020008030200081C
:1000B00011360008030200080302000803020008CA
:1000C00003020008030200080302000803020008FC
:1000D00003020008030200080302000803020008EC
:1000E000A13500080302000803020008030200080B
:1000F00003020008030200080302000803020008CC
:1001000003020008030200080302000803020008BB
:1001100003020008030200080302000803020008AB
:10012000030200080302000803020008030200089B
:10013000030200080302000803020008030200088B
:1001400003020008030200080302000865290008F2
:10015000030200080302000803020008030200086B
:10016000030200080302000803020008030200085B
:10017000030200080302000803020008030200084B
:10018000030200080302000803020008030200083B
:10019000030200080302000803020008030200082B
:1001A000030200080302000803020008030200081B
:1001B000030200080302000803020008030200080B
:1001C00003020008030200080302000803020008FB
:1001D00003020008030200080302000803020008EB
:1001E00003020008030200080302000803020008DB
:1001F00003020008030200080302000803020008CB
:1002000002E000F000F8FEE772B6374880F3088895
:10021000364880F3098836483649086040F20000C5
:10022000CCF200004EF63471CEF200010860BFF34C
:100230004F8FBFF36F8F40F20000C0F2F0004EF618
:100240008851CEF200010860BFF34F8FBFF36F8F6C
:100250004FF00000E1EE100A4EF63C71CEF20001C4
:100260000860062080F31488BFF36F8F01F0D8FF79
:1002700002F040FF4FF055301F491B4A91423CBFEE
:1002800041F8040BFAE71D49184A91423CBF41F876
:10029000040BFAE71A491B4A1B4B9A423EBF51F81E
:1002A000040B42F8040BF8E700201849184A914261
:1002B0003CBF41F8040BFAE701F0F0FF02F078FFD1
:1002C000144C154DAC4203DA54F8041B8847F9E787
:1002D00000F0A0F8114C124DAC4203DA54F8041BA4
:1002E0008847F9E701F0D8BF00060120002201206D
:1002F0000000000808ED00E00000012000060120D9
:10030000B0390008002201205C2201206022012077
:10031000902E0120000200080002000800020008E0
:10032000000200082DE9F04F2DED108AC1F80CD025
:10033000D0F80CD0BDEC108ABDE8F08F002383F319
:1003400011882846A047002001F022FBFEE701F0BB
:10035000ABFA00DFFEE7000080EA0102844612F0FB
:10036000030F4FD111F0030F32D14DF8044D11F0AE
:10037000040F51F8043B0BD0A3F101329A4312F061
:10038000803F04BF4CF8043B51F8043B16D100BF3A
:1003900051F8044BA3F101329A4312F0803FA4F1CB
:1003A00001320BD14CF8043BA24312F0803F04BF52
:1003B00051F8043B4CF8044BEAD023460CF8013BBF
:1003C00013F0FF0F4FEA3323F8D15DF8044B704769
:1003D00011F0010F06D011F8012B0CF8012B002AA7
:1003E00008BF704711F0020FBFD031F8022B12F096
:1003F000FF0F16BF2CF8022B8CF8002012F47F4F51
:10040000B3D1704711F8012B0CF8012B002AF9D158
:10041000704700BF38B500F0FFFB01F0C1FE054694
:1004200001F0F4FE0446C8B90F4B9D4219D00133C8
:100430009D4218BF044641F2883504BF01240025BF
:10044000002001F0B7FE0CB100F078F800F03CFDA0
:10045000284600F0FFF800F071F8F9E700250124C4
:10046000EEE70546ECE700BF010007B008B500F075
:10047000A7FBA0F120035842584108BD07B541F23F
:100480001203022101A8ADF8043000F0B5FB03B05F
:100490005DF804FB38B572B6302383F3118862B679
:1004A000174803680BB101F041FB164A14480023BA
:1004B0004FF47A7101F030FB002383F31188124C62
:1004C000236813B12368013B2360636813B1636839
:1004D000013B63600D4D2B7833B963687BB9022013
:1004E00000F062FC322363602B78032B07D1636832
:1004F0002BB9022000F058FC4FF47A73636038BDCA
:100500007023012095040008642301206C2301203E
:10051000084B187003280CD8DFE800F00805020823
:10052000022000F039BC022000F02CBC024B00225B
:100530005A6070476C23012064230120F8B5404BBA
:10054000404A1C461968013179D004339342F9D1ED
:100550006268A24273D33C4B9B6803F1006303F5CE
:10056000C0339A426BD2002000F070FB0220FFF7EC
:10057000CFFF364B00211A6C19641A6E19661A6E79
:100580005A6C59645A6E59665A6E5A6942F0800222
:100590005A615A6922F080025A615A691A6942F016
:1005A00000521A611A6922F000521A611B6972B670
:1005B0004FF0E023C3F8084DD4E90004BFF34F8F98
:1005C000BFF36F8F224AC2F88410BFF34F8F536975
:1005D00023F480335361BFF34F8FD2F88030C3F3DD
:1005E000C905C3F34E335B0143F6E07603EA060C1C
:1005F00029464CEA81770139C2F87472F9D2203B5E
:1006000013F1200FF2D1BFF34F8FBFF36F8FBFF302
:100610004F8FBFF36F8F536923F40033536100236F
:10062000C2F85032BFF34F8FBFF36F8F72B63023D3
:1006300083F3118862B6854680F308882047F8BDA9
:1006400000800108208001080022012000380240BB
:1006500000ED00E02DE9F04F95B0DFF8E4B2019035
:100660002022FF210CA8DBF8086000F0D7FBAF4A7E
:100670001378B3B9AE4801211170036072B630230C
:1006800083F3118862B603680BB101F04FFAA94AEF
:10069000A74800234FF47A7101F03EFA002383F358
:1006A0001188019B13B1A44B019A1A60A34A019DC2
:1006B0001378032B1EBF002313709F4A4FF00009CD
:1006C00018BF5360CA464C46C846012000F064FB80
:1006D00025B1994B1B68002B00F01A82002000F016
:1006E0006FFA0590059B002BF2DB012000F04AFB1E
:1006F000059B213B1F2BE8D801A252F823F000BF35
:1007000081070008A90700083B080008CB0600087D
:10071000CB060008CB060008C1080008810A0008C3
:100720009B090008FD090008250A00084B0A00087B
:10073000CB0600085D0A0008CB060008CF0A0008B7
:100740001F080008CB060008170B00088D070008DB
:100750001F080008CB060008FD090008CB060008AA
:10076000CB060008CB060008CB060008CB06000825
:10077000CB060008CB060008CB0600083B080008A3
:100780000220FFF773FE002840F00581019BB9F1BC
:10079000000F08BF1D4641F21233022107A8ADF831
:1007A0001C3000F029FA90E74FF47A7000F008FA54
:1007B000071EEBDB0220FFF759FE0028E6D0013FC1
:1007C000052F00F2D081DFE807F0030A0D10133582
:1007D00005230793042107A800F00EFA17E05848F4
:1007E0000421F9E757480421F6E757480421F3E7C5
:1007F0004FF01C08404600F02BFA08F1040807905F
:10080000042107A800F0F8F9B8F12C0FF2D1012368
:10081000BB404AEA03035FFA83FA4FF0000800F096
:1008200049FB24B10AF00B030B2B08BF0025FFF78F
:1008300025FE4AE745480421CEE7002CA6D00AF061
:100840000B030B2B5ED10220FFF710FE044600289D
:1008500058D0012000F0FAF90220FFF759FE0027D6
:100860001FFA87F9484600F001FA054688B9334B6C
:10087000012202201A7000F085FA2E46DBF80830BB
:10088000B34216D82D4B00261E702B4BA1465E603E
:10089000C5E70599A1F1400251425141484600F097
:1008A000F5F9013705460028DAD1A14641F21213C5
:1008B00073E7304600F0CCF90130F6D10436DDE7BD
:1008C000002C3FF463AF0AF00B030B2B1AD102206C
:1008D000FFF71EFE322000F073F9071E12DB17F03F
:1008E00003030FD1DBF80810BA198A420AD8B7F50A
:1008F000807F07D8164A9F4206DCC820FFF7B6FD66
:10090000044638BB012441E74FF47A70CDE9023246
:1009100000F056F9059005990029FFF637AF039AC4
:10092000029B059902F8011B0133E4E760230120D3
:100930007023012095040008642301206C2301200A
:100940000022012004220120082201200C22012083
:10095000602201201F2E11D8C6F12002BA420CAB32
:1009600026F0030028BF3A4680490292184400F05E
:1009700035FA029A7D48FF2100F050FABB107B49FE
:100980000293C7F38702304600F050FA00288DD05A
:10099000029B06EB8306044641E70220FFF766FD53
:1009A00000283FF4F3AE00F09DF900283FF4EEAECE
:1009B00000273B4612E01F2F1AD80C9A013217D09D
:1009C00027F0030250326A4452F8200C07900422A8
:1009D000184607A900F0A2FA04370346DBF80820FE
:1009E000BA42E8D80793042107A800F005F916E7F2
:1009F0003846029300F02CF9029BE7E700236421BC
:100A000006A8069300F0F0F800287FF4BFAE02209D
:100A1000FFF72CFD00283FF4B9AE069800F04AF924
:100A20000790E0E70023642106A8069300F0DCF8B5
:100A300000287FF4ABAE0220FFF718FD00283FF43A
:100A4000A5AE069800F046F9EAE70220FFF70EFD92
:100A500000283FF49BAE00F055F9E1E70220FFF7D4
:100A600005FD00283FF492AE07A9142000F050F9CC
:100A700004210746069006A800F0BEF83946B3E701
:100A8000322000F09DF8071EFFF680AEBB077FF412
:100A90007DAEDBF8082007EB080393423FF676AE05
:100AA0000220FFF7E3FC00283FF470AE27F00307B5
:100AB0004744B8453FF4B3AE404600F0C9F80421BE
:100AC000079007A800F098F808F10408F1E74FF440
:100AD0007A70FFF7CBFC00283FF458AE00F002F923
:100AE00000283FF4E3AE0C9B01330CD008220CA984
:100AF000002000F09BF900283FF4D8AE2022FF210F
:100B00000CA800F08BF9FFF7B9FC194800F048FF7A
:100B100015B0BDE8F08F002C3FF438AE0AF00B039F
:100B20000B2B7FF433AE0023642107A8079300F05A
:100B30005BF8074600287FF429AE0220FFF796FCF9
:100B4000029000283FF422AEFFF798FC41F2883073
:100B500000F026FF079800F0DFF900F0ABF9029BE8
:100B60003D461C46B1E54FF000080FE6602201202B
:100B7000A086010070B50F4B1B780133DBB2012B4F
:100B800005460C4610D80C4801684FF47A730E6A7B
:100B9000A2FB033229462246B047844204D1074BC8
:100BA00000221A70012070BD4FF4FA7000F0F8FEB8
:100BB0000020F8E710220120C0280120B8230120DE
:100BC00007B50023024601210DF107008DF807301B
:100BD000FFF7D0FF20B19DF8070003B05DF804FBDC
:100BE0004FF0FF30F9E7000008B50A460421FFF78F
:100BF000C1FF013808BD000030B405460448036851
:100C0000DC69044B0A46A446294630BC604700BF55
:100C1000C0280120A086010070B501F0CBF9094E73
:100C2000094C3080002520683388834208D901F0C0
:100C3000BBF9236805440133B5F5C03F2360F2D307
:100C400070BD00BFB0230120B423012001F05CBAC5
:100C500000F1006000F5C0300068704700F10060EE
:100C6000920000F5C03001F0EBB90000054B1A68A6
:100C7000054B1B889B1A834202D9104401F094B99A
:100C800000207047B4230120B023012038B5084D5F
:100C90000446286829B128682044BDE8384001F09E
:100CA000A3B9204401F088F90028F4D038BD00BF72
:100CB000B4230120034610F0030008D1B3F5846F7C
:100CC00006D203F10053A3F5712318687047002082
:100CD0007047000000F10050A0F57120D0F820040A
:100CE00070470000064991F8243033B10023086AA8
:100CF00081F824300822FFF7B1BF0120704700BF00
:100D000088230120014B1868704700BF002004E0D1
:100D100070B51A4B01381A680B181948C2F30B0545
:100D20000424120C013C0CD19942084614D3B2F5AC
:100D3000805F1AD1984202D2412300F8013B401A49
:100D400070BD0688AE420ED144680846013C984208
:100D5000EDD214F9015F1DB92C2400F8014BE6E730
:100D600000F8015BF3E70830DCE741F20104A2423E
:100D7000E5D19842E3D25A23DFE700BF002004E028
:100D800014220120022802BF024B4FF480229A61F4
:100D9000704700BF00000240022802BF014B04223E
:100DA0009A61704700000240022801BF024A53695D
:100DB00083F00403536170470000024070B504469D
:100DC0004FF47A7604B970BD412C254628BF4125E1
:100DD00006FB05F000F0E4FD641BF3E710B500230B
:100DE000934200D110BDCC5CC4540133F8E700003D
:100DF00010B5013810F9013F3BB191F900409C4218
:100E000003D11AB10131013AF4E71AB191F9002086
:100E1000981A10BD1046FCE7FFF7FEBF02440346D8
:100E2000934200D1704703F8011BF9E72DE9F8431D
:100E30001F4D144695F824200746884622B9DFF84E
:100E400070906CB9012009E02B6A03EB82038342A6
:100E5000F5D0FFF747FF0028F1D10020BDE8F88367
:100E600095F824302BB92022FF2148462F62FFF746
:100E7000D5FF95F82400C0F10802A24228BF2246FF
:100E8000D6B24146920005EB8000FFF7A7FF95F828
:100E90002430A41B1E44F6B2082E17449044E4B23A
:100EA00085F82460CDD1FFF71DFF0028C9D1D4E714
:100EB00088230120024B1A78024B1A70704700BF3A
:100EC000B82301201022012038B5104D104C2846BF
:100ED00000F0BAF82146284600F0E2F82468E26EF5
:100EE000D2F8043843F00203C2F804384FF47A70A1
:100EF000FFF764FF0749204600F0E2F9E26ED2F8FE
:100F0000043823F00203C2F8043838BDC028012099
:100F100060370008683700087047000030B5094D99
:100F20000A44914200D130BD11F8013B58400823DA
:100F300040F30004013B2C4013F0FF0384EA50000F
:100F4000F6D1EEE72083B8ED72B6302383F3118833
:100F500062B67047026843680A43026003B11847EB
:100F60007047000013B5446BD4F894341A681178B4
:100F7000042915D1217C022912D119791289012362
:100F80008B4013420CD101A904F14C0001F070FF19
:100F9000D4F89444019B21790246206800F0DCF9E2
:100FA00002B010BD143001F0F9BE00004FF0FF3365
:100FB000143001F0F3BE00004C3001F0C5BF00005A
:100FC0004FF0FF334C3001F0BFBF0000143001F090
:100FD000C9BE00004FF0FF31143001F0C3BE000065
:100FE0004C3001F091BF00004FF0FF324C3001F067
:100FF0008BBF00000020704710B5D0F894341A68F9
:1010000011780429044617D1017C022914D1597999
:10101000528901238B4013420ED1143001F05CFE43
:10102000024648B1D4F894044FF4807341790068C3
:10103000BDE8104000F07EB910BD0000406BFFF726
:10104000DBBF0000704700007FB5124B0360002338
:101050004360C0E90233012502260F4B05740446A4
:101060000290019300F18402294600964FF48073A8
:10107000143001F00DFE094B0294CDE9006304F534
:1010800023724FF48073294604F14C0001F0CCFE2A
:1010900004B070BD203700083D100008650F00083F
:1010A00008B50A68FFF750FF0B7902EB830318625B
:1010B0004B790D3342F823008B7913B102EB830295
:1010C00010620223C0F894140374002080F3118886
:1010D00008BD000038B5037F044613B190F85430C2
:1010E000ABB9201D01250221FFF734FF04F11400E4
:1010F00025776FF0010100F07BFC84F8545004F177
:101100004C006FF00101BDE8384000F071BC38BD03
:1011100010B5012104460430FFF71CFF002323779C
:1011200084F8543010BD000038B504460025143052
:1011300001F0C6FD04F14C00257701F08DFE201D65
:1011400084F854500121FFF705FF2046BDE83840E0
:10115000FFF752BF90F85C2002F06002202A03469D
:1011600015D190F85D20212A4FF0000002D81F2AE7
:1011700003D87047222A07D07047064A1A6507220B
:101180005A65986501207047C3E91400F9E700200B
:10119000704700BF2C22012037B5D0F894341A686C
:1011A0001178042904461AD1017C022917D1197932
:1011B000128901238B40134211D100F14C052846BE
:1011C00001F008FF58B101A9284601F051FED4F8FA
:1011D0009444019B21790246206800F0BDF803B0D9
:1011E00030BD000000EB8103F7B51E6A04460D46D2
:1011F000EEB104EB8507301D0821FFF7A5FEFFF7D0
:10120000A9FEFB685B691B684C3613B1304601F0E0
:101210003DFE01A9304601F02BFE024648B1019B7C
:101220002946204600F098F8002383F3118803B084
:10123000F0BDFB685A691268002AF5D01B8A013B91
:101240001340F1D104F15C02EAE700000D3138B53A
:1012500050F82140D4B1FFF777FED4F894241368F6
:10126000527903EB8203DB689B695D6845B1042119
:101270006018FFF76FFE294604F1140001F036FDF7
:101280002046FFF7B9FE002383F3118838BD000024
:101290007047000072B6302383F3118862B670473E
:1012A00001F080B810B501230446282200F8243B41
:1012B0000021FFF7B3FD0023C4E9013310BD000096
:1012C00038B50025FFF7E6FF0446C0E90355C0E93D
:1012D0000555C0E90755416001F074F802232370F9
:1012E00085F31188284638BD70B500EB81030546AB
:1012F0005069DA600E46144618B110220021FFF73B
:101300008DFDA06918B110220021FFF787FD31463D
:101310002846BDE8704001F01FB90000826802F065
:10132000011282600022C0E90422C0E906220262A2
:1013300001F09CB9F0B400EB81044789E468012511
:10134000A4698D403D43458123600023A260636012
:10135000F0BC01F0B7B90000F0B400EB81040789DC
:10136000E468012564698D403D43058123600023C5
:10137000A2606360F0BC01F031BA000070B50223D6
:10138000002504460370C0E90255C0E90455C0E9D0
:1013900006554566056280F84C5001F079F863689F
:1013A0001B6823B129462046BDE87040184770BD30
:1013B0000378052B10B504460AD080F86830052361
:1013C000037043681B680BB1042198470023A36096
:1013D00010BD00000178052906D190F86820436807
:1013E00002701B6803B118477047000070B590F891
:1013F0004C30044613B1002380F84C3004F15C02F9
:10140000204601F055F963689B68B3B994F85C30E5
:1014100013F0600533D00021204601F0FFFB0021CE
:10142000204601F0F1FB63681B6813B106212046DA
:101430009847062384F84C3070BD20469847002812
:10144000E4D0B4F86230626D9A4288BF636594F963
:101450005C30656D002B80F20281002D00F0F18080
:10146000092384F84C30FFF715FF0021D4E9142339
:101470002046FFF771FF002383F31188DCE794F81F
:101480005D2003F07F0343EA022340F202329342DD
:1014900000F0C48021D8B3F5807F48D00DD8012B4F
:1014A0003FD0022B00F09280002BB4D104F16402F3
:1014B000226502226265A365C3E7B3F5817F00F070
:1014C0009A80B3F5407FA6D194F85E30012BA2D16B
:1014D000B4F8643043F0020332E0B3F5006F4DD04E
:1014E00017D8B3F5A06F31D0A3F5C063012B92D804
:1014F000636894F85E205E6894F85F10B4F860301A
:101500002046B047002886D043682365036863659A
:101510001AE0B3F5106F36D040F6024293427FF4E2
:101520007AAF5B4B2365022363650023C3E794F81E
:101530005E30012B7FF46FAFB4F8643023F0020308
:10154000C4E91455A4F86430A5657AE7B4F85C30B2
:10155000B3F5A06F0ED194F85E3084F86630204663
:1015600000F0EEFF63681B6813B101212046984725
:10157000032323700023C4E914339CE704F16703B9
:1015800023650123C3E72378042B0FD12046FFF7FF
:1015900081FEFFF7C3FE85F311880321636884F899
:1015A000675021701B680BB12046984794F85E3055
:1015B000002BDFD084F867300423237063681B6836
:1015C000002BD7D0022120469847D3E794F860300B
:1015D0001D0603F00F0120460AD501F05BF8012833
:1015E00004D002287FF417AF2A4B9BE72A4B99E7D8
:1015F00001F042F8F3E794F85E30002B7FF40BAF74
:1016000094F8603013F00F01B4D01A06204602D5CA
:1016100001F018FBAEE701F00BFBABE794F85E308E
:10162000002B7FF4F8AE94F8603013F00F01A1D0D6
:101630001B06204602D501F0F1FA9BE701F0E4FA1F
:1016400098E7142384F84C30FFF724FE2A462B46F3
:1016500029462046FFF76EFE85F31188ECE65DB162
:10166000152384F84C30FFF715FE0021D4E914232C
:101670002046FFF75FFEFEE60B2384F84C30FFF7B1
:1016800009FE2A462B4629462046FFF765FEE3E77A
:10169000503700084C3700084837000838B590F834
:1016A0004C300446002B3CD0063BDAB20F2A32D82D
:1016B0000F2B30D8DFE803F0352F2F0821302F2FE4
:1016C0002F2F2F2F2F2F3535456DB0F862309D42CB
:1016D00013D2C3681B8AB5FBF3F203FB125565B93D
:1016E000FFF7D8FD2A462B462946FFF735FE85F33E
:1016F00011880A2384F84C300DE0142384F84C3010
:10170000FFF7C8FD00231A4619462046FFF712FED0
:10171000002383F3118838BD836D03B198470023FC
:10172000E8E70021204601F079FA0021204601F087
:101730006BFA63681B6813B106212046984706239D
:10174000D8E7000010B590F84C30142B044628D090
:1017500017D8062B05D001D81BB110BD093B022BB1
:10176000FBD80021204601F059FA0021204601F063
:101770004BFA63681B6813B106212046984706237D
:1017800018E0152BE9D10B2380F84C30FFF782FDD0
:1017900000231A461946FFF7DFFD002383F3118863
:1017A000DBE7C3689B695B68002BD6D1836D03B10F
:1017B0009847002384F84C30CFE7000000230375DE
:1017C000826803691B6899689142FBD25A6803607A
:1017D0004260106058607047002303758268036997
:1017E0001B6899689142FBD85A6803604260106098
:1017F0005860704708B5084672B6302383F31188E5
:1018000062B60B7D032B05D0042B0DD02BB983F3CF
:10181000118808BD8B6900221A604FF0FF33836185
:10182000FFF7CCFF0023F2E7D1E9003213605A60E2
:10183000F3E70000FFF7C2BF054BD96808751868C9
:1018400002681A60536001220275D860FEF76ABD13
:10185000D025012030B50C4BDD684B1C87B0044609
:101860000FD02B46094A684600F056F92046FFF78C
:10187000E3FF009B13B1684600F058F9A86907B070
:1018800030BDFFF7D9FFF9E7D0250120F517000893
:10189000044B1A68DB6890689B68984294BF0020EC
:1018A00001207047D0250120084B10B51C68D8686E
:1018B00022681A60536001222275DC60FFF78CFFFA
:1018C00001462046BDE81040FEF72CBDD025012082
:1018D00038B5074C07490848012300252370656087
:1018E00001F0B0FB0223237085F3118838BD00BFDF
:1018F0002826012054370008D025012000F04CB9DB
:10190000034A516853685B1A9842FBD8704700BF7E
:10191000001000E072B6302383F3118862B670477E
:101920008B60022308618B82084670478368A3F1AD
:10193000840243F8142C026943F8442C426943F8AA
:10194000402C094A43F8242CC26843F8182C022280
:1019500003F80C2C002203F80B2C044A43F8102C3B
:10196000A3F12000704700BF3D030008D0250120EF
:1019700008B5FFF7DBFFBDE80840FFF75BBF0000DD
:10198000024BDB6898610F20FFF756BFD02501207E
:1019900008B5FFF7BFFFBDE80840FFF7F1BF000043
:1019A00008B501460820FFF7B5FFFFF753FF0023F6
:1019B00083F3118808BD0000064BDB6839B142682B
:1019C00018605A60136043600420FFF743BF4FF074
:1019D000FF307047D025012003460068834205D0C0
:1019E00002681A6053608161FFF724BF70470000EE
:1019F00038B504460D462068844200D138BD0368DE
:101A000023605C608561FFF715FFF4E710B503689C
:101A10009C68A2420CD85C688A600B604C602160B4
:101A200059609968891A99604FF0FF33836010BD3F
:101A30001B68121BECE700000A2938BF0A2170B5A9
:101A400004460D460A26601901F0F6FA01F0E2FAA2
:101A5000041BA54203D8751C2E460446F3E70A2E44
:101A600004D9BDE87040012001F02CBB70BD00001E
:101A7000F8B5144B1446D961826003F1100242603C
:101A80000A2C1A69026038BF0A24506018610819CC
:101A90000D4601F0C3FA0A2701F0BCFA431BA3422A
:101AA000064606D37C1C281901F0C6FA274635469F
:101AB000F2E70A2F04D9BDE8F840012001F002BB8B
:101AC000F8BD00BFD025012070B50D46064601F0D7
:101AD000A1FA0F490B4653F8102F9A4206D12A4615
:101AE00001463046BDE87040FFF7C2BFCB69C41A5B
:101AF0002C19936828BF2C46A34202D92946FFF728
:101B00009BFF224631460348BDE87040FFF77EBF89
:101B1000D0250120E025012010B4C0E903230023D3
:101B20005DF8044B4361FFF7CFBF000010B5194CBF
:101B3000236998420DD0D0E90032816813605A6061
:101B40009A680A449A60002303604FF0FF33A36150
:101B500010BD2346026843F8102F53600022026034
:101B600022699A4203D1BDE8104001F05FBA936840
:101B700081680B44936001F04DFA2269E169926833
:101B8000441AA242E4D91144BDE81040091AFFF7F3
:101B900053BF00BFD02501202DE9F047DFF8BC80FE
:101BA00008F110072C4ED8F8105001F033FAD8F88D
:101BB0001C40AA68011B8A423FD81444D5E9003270
:101BC000C8F81C4013605A6000232B60D8F810201E
:101BD000B242994601D101F029FA89F31188D5E979
:101BE00003312846984772B6302383F3118862B6D2
:101BF0006B69002BD7D001F00DFA6A69A0EB0409DC
:101C00004A4582460DD2022001F05CFA0022D8F843
:101C10001030B34208D151462846BDE8F047FFF7DF
:101C200027BF2244121AF2E712EB090938BF4A46CD
:101C300029463846FFF7EAFEB4E7D8F81010B1425B
:101C400008D01444211AC8F81C00A960BDE8F04768
:101C5000FFF7F2BEBDE8F087E0250120D025012086
:101C600000207047FEE70000704700004FF0FF3093
:101C70007047000072B6302383F3118862B6704754
:101C800002290CD0032904D00129074818BF0020DD
:101C90007047032A05D8054800EBC2007047044886
:101CA00070470020704700BF103800083422012020
:101CB000C437000870B59AB00546084601A9144615
:101CC00000F0BAF801A8FFF7A7F8431C5B00C5E9CC
:101CD00000340022237003236370C6B201AB0234C8
:101CE0001046D1B28E4204F1020401D81AB070BD80
:101CF00013F8011B04F8021C04F8010C0132F0E790
:101D000008B50448FFF7B6FFFFF746FA002383F350
:101D1000118808BDC028012090F85C3003F01F0234
:101D2000012A07D190F85D200B2A03D10023C0E9D6
:101D3000143315E003F06003202B08D1B0F86030B5
:101D40002BB990F85D20212A03D81F2A04D8FFF769
:101D500001BA222AEBD0FAE7034A0265072242655C
:101D600083650120704700BF5422012010B504464E
:101D7000052915D8DFE801F015140315151B0F4AC6
:101D80000121FFF777FFFFF7AFFA20460C4A022147
:101D9000FFF7AAFA0B48FFF7C7F9002383F311886E
:101DA00010BD0848FFF766FFFFF794F9F5E705480F
:101DB000FFF760FFFFF7ACF9EFE700BF9C370008C3
:101DC00078370008C028012038B50B4D0B4C0C4962
:101DD0002A462046FFF76EFF05F1CA0204F108000B
:101DE0000849FFF767FF05F5CA7204F110000649BC
:101DF000BDE83840FFF75EBF602601203C2201208D
:101E0000D0360008DA360008E536000870B504461A
:101E100008460D46FFF700F8C6B2204601340378A5
:101E20000BB9184670BD32462946FEF7E1FF00287F
:101E3000F3D10120F6E700002DE9F04105460C46FC
:101E4000FEF7EAFF2949C6B22846FFF7DFFF08B1CF
:101E50000436F6B226492846FFF7D8FF08B11036F7
:101E6000F6B2632E07D8214FDFF884802E7846B96A
:101E70002670BDE8F08129462046BDE8F041FEF716
:101E80006BBA252E2DD1072239462846FEF7B0FF22
:101E900058B9184B1A6822605A6862601A899B7A8E
:101EA0002281A37207350B34E0E708224146284619
:101EB000FEF79EFFA8B9104B1048114EA21C1978CE
:101EC00009090232415C02F8041C13F8011B01F0FD
:101ED0000F01B342415C02F8031CF0D118340835FD
:101EE000C4E704F8016B0135C0E700BFEE36000817
:101EF000E5360008F636000820F4F01F0237000827
:101F00002CF4F01FBFF34F8F024AD368DB03FCD4DD
:101F1000704700BF003C024008B5074B1B7853B91F
:101F2000FFF7F0FF054B1A69002ABFBF044A5A6049
:101F300002F188325A6008BD582D0120003C024051
:101F40002301674508B5054B1B7833B9FFF7DAFF66
:101F5000034A136943F00043136108BD582D012063
:101F6000003C02400728F0B515D80C4C0C492378EA
:101F700073B90C4D0E464FF00062013355F8047BE7
:101F800046F8042BDBB2082B3A44F6D10123237028
:101F900051F82000F0BD0020FCE700BF592D0120C2
:101FA0005C2D01202C380008014B53F820007047AD
:101FB0002C38000808207047072810B5044601D9BE
:101FC000002010BDFFF7CEFF064B53F82430184415
:101FD000C21A0BB90120F4E712680132F0D1043BB8
:101FE000F6E700BF2C380008072810B5044621D8B2
:101FF000FFF788FFFFF790FF0F4AF323D360C3007A
:10200000DBB243F4007343F002031361136943F43A
:1020100080331361FFF776FFFFF7A4FF074B53F8F8
:10202000241000F0D5F8FFF78DFF2046BDE81040E2
:10203000FFF7C2BF002010BD003C02402C38000852
:10204000F8B5D507144641D48318B3F1016F3DD8D4
:102050002B4B1B68DA0739D52A4FFFF75DFFF323B7
:10206000FB60FFF74FFF40F20126032C15D824F048
:102070000104244D0C44401A40F20117A1422B697F
:1020800001EB000624D123F001032B61FFF75AFF77
:102090000120F8BD043C0430E7E78307E7D13B6942
:1020A00023F440733B613B6933433B6151F8045B6C
:1020B0000560BFF34F8FFFF725FF03689D42E9D00E
:1020C0003B6923F001033B61FFF73CFF0020E0E7A1
:1020D00023F440732B612B693B432B610B883380C6
:1020E000BFF34F8FFFF70EFF368831F8023BB6B2D1
:1020F000B342C3D02B6923F001032B61E4E700BF97
:1021000000380240003C0240084908B50B7828B16D
:102110001BB9FFF701FF01230B7008BD002BFCD09A
:10212000BDE808400870FFF70DBF00BF582D012023
:1021300010B50244064BD2B2904200D110BD441CEF
:1021400000B253F8200041F8040BE0B2F4E700BFFE
:10215000502800400F4B30B51C6F240407D41C6F6F
:1021600044F400741C671C6F44F400441C670A4C60
:10217000236843F4807323600244084BD2B2904238
:1021800000D130BD441C00B251F8045B43F820502C
:10219000E0B2F4E7003802400070004050280040F0
:1021A00007B5012201A90020FFF7C2FF019803B083
:1021B0005DF804FB13B50446FFF7F2FFA04205D01B
:1021C000012201A900200194FFF7C4FF02B010BD55
:1021D0000144BFF34F8F064B884204D3BFF34F8FA8
:1021E000BFF36F8F7047C3F85C022030F4E700BF85
:1021F00000ED00E0034B1A681AB9034AD2F87428BC
:102200001A6070477C2D01200030024008B5FFF7AE
:10221000F1FF024B1868C0F3407008BD7C2D01200F
:1022200070B5BFF34F8FBFF36F8F1A4A0021C2F80A
:102230005012BFF34F8FBFF36F8F536943F40033D6
:102240005361BFF34F8FBFF36F8FC2F88410BFF39A
:102250004F8FD2F88030C3F3C900C3F34E335B0114
:1022600043F6E07403EA0406014646EA8175013943
:10227000C2F86052F9D2203B13F1200FF2D1BFF324
:102280004F8F536943F480335361BFF34F8FBFF3D4
:102290006F8F70BD00ED00E0FEE7000070B5214BD0
:1022A0002148224A904237D3214BDA1C121AC11E10
:1022B00022F003028B4238BF00220021FEF7AEFD60
:1022C0001C4A0023C2F88430BFF34F8FD2F880300D
:1022D000C3F3C900C3F34E335B0143F6E07403EA72
:1022E0000406014646EA81750139C2F86C52F9D2FA
:1022F000203B13F1200FF2D1BFF34F8FBFF36F8F4D
:10230000BFF34F8FBFF36F8F0023C2F85032BFF37C
:102310004F8FBFF36F8F70BD53F8041B40F8041B41
:10232000C0E700BF0C3A0008902E0120902E01203B
:10233000902E012000ED00E070B5D0E91B439E68AF
:1023400000224FF0FF3504EB42135101D3F800098E
:102350000028BEBFD3F8000940F08040C3F8000950
:10236000D3F8000B0028BEBFD3F8000B40F080402C
:10237000C3F8000B01326318B242C3F80859C3F81E
:10238000085BE0D94FF00113C4F81C3870BD0000A1
:10239000890141F02001016103699B06FCD41220F0
:1023A000FFF7AEBA10B5054C2046FEF77BFF4FF0A5
:1023B000A043E366024B236710BD00BF982D0120A8
:1023C0004C38000870B50378012B054650D12A4BD4
:1023D000C46E98421BD1294B5A6B42F080025A635B
:1023E0005A6D42F080025A655A6D5A6942F0800275
:1023F0005A615A6922F080025A610E2143205B69BA
:1024000000F02AFC1E4BE3601E4BC4F8003800238A
:10241000C4F8003EC0232360EE6E4FF40413A363A0
:102420003369002BFCDA012333610C20FFF768FAD3
:102430003369DB07FCD41220FFF762FA3369002B03
:10244000FCDA0026A6602846FFF776FF6B68C4F822
:102450001068DB68C4F81468C4F81C684BB90A4BF0
:10246000A3614FF0FF336361A36843F00103A360EE
:1024700070BD064BF4E700BF982D012000380240E4
:102480004014004003002002003C30C0083C30C033
:10249000F8B5C46E054600212046FFF779FF296F85
:1024A00000234FF001128F68C4F834384FF00066F3
:1024B000C4F81C284FF0FF3004EB431201339F4255
:1024C000C2F80069C2F8006BC2F80809C2F8080B2C
:1024D000F2D20B68EA6E6B676362102313611669B0
:1024E00016F01006FBD11220FFF70AFAD4F80038D4
:1024F00023F4FE63C4F80038A36943F4402343F097
:102500001003A3610923C4F81038C4F814380A4B27
:10251000EB604FF0C043C4F8103B084BC4F8003BDD
:10252000C4F81069C4F800396B6F03F1100243F46A
:1025300080136A67A362F8BD583800084080001015
:10254000C26E90F86610D2F8003823F4FE6343EAB6
:102550000113C2F8003870472DE9F84300EB8103FE
:102560000C460FFA81F9D968C56E0E6806F00306AD
:10257000731E022B05EB44134FF00002C3F8102B1F
:1025800004F110024FF0010398BFB60403FA02F3FE
:102590008A698CBF334E06F18056804698BF06F597
:1025A00000466001002A39D04F8A04F158025201D6
:1025B0003743AF50D5F81C281343C5F81C382B18E7
:1025C0000022C3F810294A690127631EA74092B36D
:1025D0000A8A898B9208012988BF4A434033D8F878
:1025E000741005EB8303501841EA0241C8F87400E7
:1025F000596028462146FFF7CBFE08EB8900C368E7
:102600001B8A43EA84534834640133432B51D5F881
:102610001C383B43C5F81C38BDE8F88305EB491767
:10262000D7F8002B22F40042C7F8002BD5F81C285D
:1026300022EA0303C1E704F13F0305EB83030A4ADF
:102640005A6021462846FFF7A3FE05EB4913D3F84D
:10265000002922F40042C3F80029D5F81C3823EAE7
:102660000703D7E70080001000040002026F126821
:102670004267FFF761BE00005831C36E49015B58E5
:1026800013F4004004D013F4001F14BF01200220F3
:10269000704700004831C36E49015B5813F4004095
:1026A00004D013F4001F14BF012002207047000063
:1026B00000EB8100C368196A0B6813604B685360B4
:1026C0007047000000EB810330B5DD68AA6913682C
:1026D000D36019B9402B84BF402313606B8A146800
:1026E000C26E1C44013CB4FBF3F46343033323F098
:1026F000030302EB411043EAC44343F0C043C0F874
:10270000103B2B6803F00303012B09B20ED1D2F862
:10271000083802EB411013F4807FD0F8003B14BF5F
:1027200043F0805343F00053C0F8003B02EB4112EA
:10273000D2F8003B43F00443C2F8003B30BD000038
:102740002DE9F041244DEE6E06EB40130446D3F81C
:10275000087BC3F8087B38070AD5D6F81438190760
:1027600006D505EB84032146DB6828465B6898475D
:10277000FA0721D5D6F81438DB071DD505EB8403FD
:10278000D9688B69D4B9488A5A68B2FBF0F600FB65
:1027900016229AB91868DA6890420FD2121AC3E961
:1027A000002472B6302383F3118862B60A482146AA
:1027B000FFF788FF84F31188BDE8F0816B8901225F
:1027C000A24023EA02036B81CB68002BF4D02146A0
:1027D0000148BDE8F0411847982D012000EB810326
:1027E00070B5DD68C36E6C692668E6604A014EBB51
:1027F0001A444FF40020C2F810092A6802F00302BC
:10280000012A0AB20ED1D3F8080803EB421410F4DF
:10281000807FD4F8000914BF40F0805040F0005091
:10282000C4F8000903EB4212D2F8000940F004405A
:10283000C2F80009D3F8340801228A400243C3F8E1
:10284000342870BD19B9402E84BF40202060206814
:102850002E8A8419013CB4FBF6F440EAC44040F0EF
:1028600000501A44C7E700002DE9F8433C4DEE6ED6
:1028700006EB40130446D3F80889C3F8088918F01A
:10288000010F4FEA40171CD0D6F81038DB0718D5D7
:1028900005EB8003D9684B691868DA68904232D238
:1028A000121A4FF000091A60C3F8049072B6302370
:1028B00083F3118862B621462846FFF78FFF89F31C
:1028C000118818F0800F1CD0D6F834380126A640A5
:1028D000334216D005EB8403ED6ED3F80CC0DCF860
:1028E00014200134E4B2D2F800E005EB04342F44A4
:1028F0005168714514D3D5F8343823EA0603C5F876
:102900003438BDE8F8832B890122A24023EA020370
:102910002B818B68002BD4D0214628469847D0E7DE
:10292000BCF81000AEEB0103834228BF0346D7F882
:10293000180980B2B3EB800FE3D89068A0F10409C6
:1029400059F8048FC4F80080A0EB09089844B8F146
:10295000040FF5D81844194490605160C8E700BFCF
:10296000982D01202DE9F047A64CE56E6E69AB6904
:102970001E4016F480586E6106D02046FEF7FEFC1D
:10298000BDE8F04700F05ABC002E12DAD5F8003E40
:102990009C489B071EBFD5F8003E23F00303C5F8F3
:1029A000003ED5F8043823F00103C5F80438FEF7DB
:1029B00011FD370505D59348FFF7BEFC9148FEF79A
:1029C000F7FCB0040CD5D5F8083813F0060FEB6807
:1029D00023F470530CBF43F4105343F4A053EB6043
:1029E00031071BD56368DB681BB9AB6923F00803AB
:1029F000AB612378052B0CD1D5F8003E81489A07AE
:102A00001EBFD5F8003E23F00303C5F8003EFEF7D5
:102A1000E1FC6368DB680BB17A489847F30232D572
:102A20000021D4F86C900F4609EB4713D3F8002926
:102A300002F44022B2F5802F1ED1D3F80029002ADB
:102A40001ADAD3F8002942F09042C3F80029D3F8EB
:102A50000029002AFBDBE06EFFF79AFC23890122A4
:102A6000BA4023EA0203238104EB8703DB689B68F7
:102A700013B1644839469847236F01379B68FFB20A
:102A80009F423946D0D9B70225D5D4F86C9000279B
:102A90004FF0010A09EB4712D2F8003B03F4402340
:102AA000B3F5802F11D1D2F8003B002B0DDA6389EA
:102AB0000AFA07F223EA0203638104EB8703DB6867
:102AC000DB6813B14F4839469847236F01379B683D
:102AD000FFB29F42DED9F00616D5E76E3A6AC2F31E
:102AE0000A1002F00F0302F4F012B2F5802F5ED04C
:102AF000B2F5402F08D104EB83030022DB681B6A88
:102B000007F58057904244D13303D5F818481DD5B6
:102B1000E70302D50020FFF713FEA50302D501202D
:102B2000FFF70EFE600302D50220FFF709FE210326
:102B300002D50320FFF704FEE20202D50420FFF7CE
:102B4000FFFDA30202D50520FFF7FAFD77037FF50D
:102B500017AFE60702D50020FFF786FEA50702D5CE
:102B60000120FFF781FE600702D50220FFF77CFEFF
:102B7000210702D50320FFF777FEE20602D50420E5
:102B8000FFF772FEA3067FF5FBAE0520FFF76CFE94
:102B9000F6E6910708BFD7F80080072A98BF03F828
:102BA000018B02F1010298BF4FEA1828AAE702330D
:102BB00004EB830207F580575268D2F818C0DCF89E
:102BC0000820DCE9001CA1EB0C0C002188420AD192
:102BD00004EB830463689B699A6802449A605A68AC
:102BE00002445A6090E711F0030F08BFD7F8008045
:102BF0008C4588BF02F8018B01F1010188BF4FEAC3
:102C00001828E3E7982D0120C36E03EB4111D1F89A
:102C1000003B43F40013C1F8003B7047C36E03EB65
:102C20004111D1F8003943F40013C1F8003970475D
:102C3000C36E03EB4111D1F8003B23F40013C1F83C
:102C4000003B7047C36E03EB4111D1F8003923F408
:102C50000013C1F80039704700F1604303F5614388
:102C60000901C9B283F80013012200F01F039A4042
:102C700043099B0003F1604303F56143C3F88021DE
:102C80001A60704772B6302383F3118862B67047BA
:102C900030B5039C0172043304FB0325C0E90653DD
:102CA000049B03630021059BC160C0E90000C0E9EB
:102CB0000422C0E90842C0E90A11436330BD0000A4
:102CC000416A0022C0E90411C0E90A22C2606FF023
:102CD0000101FEF78DBE0000D0E90432934201D11C
:102CE000C2680AB9181D704700207047036919604F
:102CF000C2680132C260C2691344826903619342AF
:102D000024BF436A03610021FEF766BE38B504465E
:102D10000D46E3683BB16269131D1268A362134458
:102D2000E362002007E0237A33B929462046FEF704
:102D300043FE0028EDDA38BD6FF00100FBE700002C
:102D4000C368C269013BC36043691344826943613C
:102D5000934224BF436A436100238362036B03B140
:102D60001847704770B5FFF78DFF866A04463EB975
:102D7000FFF7CCFF054618B186F31188284670BDD1
:102D8000A36AE26A13F8015BA362934202D320466E
:102D9000FFF7D6FF002383F31188EFE72DE9F04713
:102DA0009846FFF76FFF4FF0000A04460E4617469D
:102DB000D146A56A4DB941462046FFF7A7FF20B18D
:102DC00085F311885046BDE8F087D4E90A15A7EBD2
:102DD0000A036D1A9D4228BF1D46402D1BD933465C
:102DE00001F1400251F8040B43F8040B9142F9D170
:102DF000A36A403640330AF1400AE26AA3629A426B
:102E000002D82046FFF79CFF89F31188BA45D9D232
:102E1000FFF738FFCDE730462A46FDF7DFFFA36A0C
:102E20002E442B44AA44E8E710B5029C01720433F7
:102E300003FB0421C0E906130023C0E90A33039B06
:102E40000363049BC460C0E90000C0E90422C0E938
:102E50000842436310BD0000026AC260426AC0E9D2
:102E600004220022C0E90A226FF00101FEF7C0BD72
:102E70000346D0E90420824201D1DB681BB950F837
:102E8000043B0B60704700231846FAE7C368C26929
:102E90000133C3604369134482694361934224BF91
:102EA000436A43610021FEF797BD000038B5044630
:102EB0000D46E3683BB123691A1DA262E26913441F
:102EC000E362002007E0237A33B929462046FEF763
:102ED00073FD0028EDDA38BD6FF00100FBE700005C
:102EE00003691960C268013AC260C2691344826909
:102EF0000361934224BF436A036100238362036B2F
:102F000003B118477047000070B5FFF7BBFE866A33
:102F10000D46044611462EB9FFF7C8FF10B186F3DF
:102F2000118870BDA36A1D70A36AE26A01339342DF
:102F3000A36204D3E16920460439FFF7D1FF0020E2
:102F400080F31188EDE700002DE9F0479846FFF780
:102F500099FE4FF0000A05460C461746D146AE6A68
:102F60004EB941462846FFF7A1FF20B186F31188EC
:102F70005046BDE8F087D5E90A06A7EB0A03361AE2
:102F80009E4228BF1E46402E1BD904F1400354F830
:102F9000042B40F8042B9C42F9D1AB6A0AF1400A99
:102FA0004033EA6AAB629A4204D8E9692846043998
:102FB000FFF796FF89F31188BA45D9D2FFF762FE71
:102FC000CDE721463246FDF709FFAB6A344433446E
:102FD000B244E6E7D0E904218A42034616D1C0682C
:102FE000A8B1986A98B10438801A10D01060D968D6
:102FF0000139D960D9690A4499691A618A4224BFA2
:103000005A6A1A6100229A620120704700207047B4
:1030100000F040B94FF08043586A70474FF080434A
:10302000002258631A610222DA6070474FF0804331
:103030000022DA60704700004FF080435863704709
:10304000FEE7000070B51B4B01630025044686B007
:1030500085620E46586000F0C9F804F11003C4E917
:1030600004334FF0FF33C4E90635C4E90044A560DA
:10307000E562FFF7CFFF2B460246C4E9082304F1BF
:1030800034010D4A256580232046FEF749FC0123C3
:10309000E0600A4A0375009272680192B268CDE955
:1030A0000223074B6846CDE90435FEF761FC06B004
:1030B00070BD00BF2826012013370008183700080C
:1030C00041300008024AD36A0343D362704700BF0D
:1030D000D02501204B6843608B688360CB68C36058
:1030E0000B6943614B6903628B6943620B68036040
:1030F0007047000008B52B4B2B481A6940F2FF714E
:103100000A431A611A696FF30A021A611A691A6B83
:103110000A431A631A6D0A431A65244A1B6D114645
:10312000FFF7D8FF02F11C0100F58060FFF7D2FF26
:1031300002F1380100F58060FFF7CCFF02F1540185
:1031400000F58060FFF7C6FF02F1700100F58060B6
:10315000FFF7C0FF02F18C0100F58060FFF7BAFFB6
:1031600002F1A80100F58060FFF7B4FF02F1C4018D
:1031700000F58060FFF7AEFF02F1E00100F580602E
:10318000FFF7A8FF02F1FC0100F58060FFF7A2FF46
:1031900002F58C7100F58060FFF79CFFBDE80840E8
:1031A00000F0EEB800380240000002407C38000811
:1031B00008B500F059FAFEF78BFBFFF71BF8BDE8E6
:1031C0000840FEF701BE000070470000EFF30983DE
:1031D00005494A6B22F001024A63683383F3098888
:1031E000002383F31188704700EF00E0302080F364
:1031F000118862B60D4B0E4AD96821F4E0610904CA
:10320000090C0A43DA60D3F8FC200A4942F08072C4
:10321000C3F8FC20084AC2F8B01F116841F0010150
:1032200011602022DA7783F82200704700ED00E079
:103230000003FA0555CEACC5001000E010B572B61B
:10324000302383F3118862B60E4B5B6813F400637E
:1032500014D0F1EE103AEFF30984683C4FF080731C
:10326000E361094BDB6B236684F30988FEF710FBEF
:1032700010B1064BA36110BD054BFBE783F311882A
:10328000F9E700BF00ED00E000EF00E04F030008A9
:10329000520300080F4B1A6C42F001021A641A6EB6
:1032A00042F001021A660C4A1B6E936843F0010358
:1032B00093604FF080436B229A624FF0FF32DA62E4
:1032C00000229A615A63DA605A6001225A611A60D8
:1032D000704700BF00380240002004E04FF08042F9
:1032E00008B51169D3680B40D9B2C9439B07116176
:1032F00009D572B6302383F3118862B6FEF7FEFA61
:10330000002383F3118808BD1B4B1A696FEA4252F0
:103310006FEA52521A611A69C2F30A021A614FF037
:10332000FF301A695A69586100215A6959615A690E
:103330001A6A62F080521A621A6A02F080521A62A5
:103340001A6A5A6A58625A6A59625A6A0B4A10686B
:1033500040F480701060186F00F44070B0F5007F8A
:103360001EBF4FF4803018671967536823F4007349
:10337000536000F055B900BF0038024000700040B3
:10338000374B4FF080521A64364A4FF44041116077
:103390001A6842F001021A601A689207FCD59A680E
:1033A00022F003029A602E4B9A6812F00C02FBD1B5
:1033B000196801F0F90119609A601A6842F48032C4
:1033C0001A601A689003FCD55A6F42F001025A67DE
:1033D000234B5A6F9107FCD5234A5A601A6842F072
:1033E00080721A601F4B5A685204FCD51A6842F466
:1033F00080321A605A68D003FCD51A6842F4003251
:103400001A60184A53689903FCD5154B1A68920143
:10341000FCD5164A9A6040F20112C3F88C200022B3
:10342000C3F89020124A40F207331360136803F088
:103430000F03072BFAD10A4B9A6842F002029A60F6
:103440009A6802F00C02082AFAD15A6C42F48042BF
:103450005A645A6E42F480425A665B6E704700BFEF
:103460000038024000700040086C40090094883821
:10347000003C0240074A08B5536903F00103536159
:1034800023B1054A13680BB150689847BDE808405E
:10349000FFF7D4BE003C0140102E0120074A08B5BA
:1034A000536903F00203536123B1054A93680BB1DA
:1034B000D0689847BDE80840FFF7C0BE003C014017
:1034C000102E0120074A08B5536903F00403536125
:1034D00023B1054A13690BB150699847BDE808400C
:1034E000FFF7ACBE003C0140102E0120074A08B592
:1034F000536903F00803536123B1054A93690BB183
:10350000D0699847BDE80840FFF798BE003C0140ED
:10351000102E0120074A08B5536903F010035361C8
:1035200023B1054A136A0BB1506A9847BDE80840B9
:10353000FFF784BE003C0140102E0120164B10B551
:103540005C6904F478725A61A30604D5134A936A3D
:103550000BB1D06A9847600604D5104A136B0BB1C3
:10356000506B9847210604D50C4A936B0BB1D06B76
:103570009847E20504D5094A136C0BB1506C984783
:10358000A30504D5054A936C0BB1D06C9847BDE8F0
:103590001040FFF753BE00BF003C0140102E012039
:1035A000194B10B55C6904F47C425A61620504D57C
:1035B000164A136D0BB1506D9847230504D5134A75
:1035C000936D0BB1D06D9847E00404D50F4A136E8C
:1035D0000BB1506E9847A10404D50C4A936E0BB101
:1035E000D06E9847620404D5084A136F0BB1506F30
:1035F0009847230404D5054A936F0BB1D06F9847C1
:10360000BDE81040FFF71ABE003C0140102E01201B
:1036100008B5FFF763FEBDE80840FFF70FBE0000E6
:10362000062108B50846FFF717FB06210720FFF71C
:1036300013FB06210820FFF70FFB06210920FFF7E7
:103640000BFB06210A20FFF707FB06211720FFF7D7
:1036500003FB06212820FFF7FFFABDE808400721F9
:103660001C20FFF7F9BA000008B5FFF74DFE00F087
:103670000BF8FDF715FEFDF7E5FCFFF7A5FDBDE82E
:103680000840FFF7C5BC00000023054A1946013376
:10369000102BC2E9001102F10802F8D1704700BFF7
:1036A000102E012053544D3332463F3F3F3F3F3FA2
:1036B0000053544D333246375B347C355D780053CC
:1036C000544D333246375B367C375D7800633000CB
:1036D0004172647550696C6F740025424F415244C9
:1036E000252D424C002553455249414C2500254289
:1036F0004F41524425004243756265463734357662
:103700003200303132333435363738394142434470
:103710004546006D61696E0069646C6500000000DB
:1037200000000000C10F0008AD0F0008E90F0008FD
:10373000D50F0008E10F0008CD0F0008B90F0008F1
:10374000A50F0008F50F00080100000000000000B0
:1037500000000000CD360008C0230120D025012044
:10376000982D0120010102006D1D0008811C000838
:10377000191D0008011D00080300000000000000E2
:103780009112000800000000100000003026012007
:103790000000000001000000000000000200000026
:1037A00000000000E51100084D1200084000400034
:1037B00050260120402601200200000000000000E9
:1037C0000403090443000000CC3700080902430049
:1037D000020100C0320904000001020201000524B8
:1037E0000010010524010001042402020524060042
:1037F00001070582030800FF09040100020A000016
:10380000000705010240000007058102400000009A
:1038100012000000183800081201100102000040D8
:10382000091241570002010203010000008000005C
:103830000080000000800000008000000000020006
:1038400000000400000004000000040080000000EC
:10385000400100000500000000000000ED1300081A
:103860009D1600084517000840004000882D0120E3
:10387000882D012001000000802D01205001802AA8
:1038800000000000AAAAAAAA00010024F3FF000079
:103890000000000000A00A00050000010000000078
:1038A000AAAAAAAA00000001FCFF00000000000074
:1038B000000000000000040000000000AAAAAAAA5C
:1038C00000000000FFFD00000000000000000000FC
:1038D0000000004000000000AAAAAAAA0000008080
:1038E000FF7F000000000000000000000001440015
:1038F00000000000AAAAAAAA00010000FFF500002B
:1039000000000000000000000000000000000000B7
:10391000AAAAAAAA00000000FFFF00000000000001
:10392000000000000000000000000000AAAAAAAAEF
:1039300000000000FFFF0000000000000000000089
:1039400000000000000000000A000000000000006D
:103950000300000000000000000000000000000064
:103960000000000000000000000000000000000057
:103970000000000000000000000000000000000047
:103980000000000000000000000000000000000037
:103990000000000000000000000000000000000027
:1039A0000000000000000000000000000000000017
:1039B000AF0400000000000000800E0000000000C6
:1039C000FF00000000000000A436000849040000C9
:1039D000B136000851040000BF3600080096000010
:1039E0000000080004000000C037000800000000CC
:1039F00000000000000000000000000000000000C7
:0C3A00000000000000960000000008001C
:00000001FF
